{
  "_format": "hh-sol-artifact-1",
  "contractName": "DAO",
  "sourceName": "contracts/DAO.sol",
  "abi": [
    {
      "inputs": [],
      "stateMutability": "nonpayable",
      "type": "constructor"
    },
    {
      "anonymous": false,
      "inputs": [
        {
          "components": [
            {
              "internalType": "uint256",
              "name": "eventId",
              "type": "uint256"
            },
            {
              "internalType": "uint256",
              "name": "eventTimeStamp",
              "type": "uint256"
            },
            {
              "internalType": "string",
              "name": "name",
              "type": "string"
            },
            {
              "internalType": "string",
              "name": "description",
              "type": "string"
            },
            {
              "internalType": "string",
              "name": "coverURL",
              "type": "string"
            },
            {
              "internalType": "address",
              "name": "createdBy",
              "type": "address"
            },
            {
              "internalType": "address[]",
              "name": "attendees",
              "type": "address[]"
            }
          ],
          "indexed": false,
          "internalType": "struct DAO.Event[]",
          "name": "events",
          "type": "tuple[]"
        }
      ],
      "name": "EventsList",
      "type": "event"
    },
    {
      "anonymous": false,
      "inputs": [
        {
          "components": [
            {
              "internalType": "uint256",
              "name": "memberId",
              "type": "uint256"
            },
            {
              "internalType": "uint256",
              "name": "activityPoints",
              "type": "uint256"
            },
            {
              "internalType": "uint256",
              "name": "joinTimeStamp",
              "type": "uint256"
            },
            {
              "internalType": "string",
              "name": "discordUsername",
              "type": "string"
            },
            {
              "internalType": "string",
              "name": "role",
              "type": "string"
            },
            {
              "internalType": "string[]",
              "name": "pastActivities",
              "type": "string[]"
            },
            {
              "internalType": "string",
              "name": "profileURL",
              "type": "string"
            },
            {
              "internalType": "address",
              "name": "memberAddress",
              "type": "address"
            }
          ],
          "indexed": false,
          "internalType": "struct DAO.Member[]",
          "name": "members",
          "type": "tuple[]"
        }
      ],
      "name": "MembersList",
      "type": "event"
    },
    {
      "inputs": [
        {
          "internalType": "string",
          "name": "_name",
          "type": "string"
        },
        {
          "internalType": "string",
          "name": "_description",
          "type": "string"
        },
        {
          "internalType": "string",
          "name": "_coverURL",
          "type": "string"
        }
      ],
      "name": "addEvent",
      "outputs": [],
      "stateMutability": "nonpayable",
      "type": "function"
    },
    {
      "inputs": [
        {
          "internalType": "string",
          "name": "_discordUsername",
          "type": "string"
        },
        {
          "internalType": "string",
          "name": "_role",
          "type": "string"
        },
        {
          "internalType": "string",
          "name": "_profileURL",
          "type": "string"
        }
      ],
      "name": "addMember",
      "outputs": [],
      "stateMutability": "nonpayable",
      "type": "function"
    },
    {
      "inputs": [],
      "name": "getEvents",
      "outputs": [],
      "stateMutability": "nonpayable",
      "type": "function"
    },
    {
      "inputs": [],
      "name": "getMembers",
      "outputs": [],
      "stateMutability": "nonpayable",
      "type": "function"
    },
    {
      "inputs": [
        {
          "internalType": "uint16",
          "name": "_eventID",
          "type": "uint16"
        }
      ],
      "name": "joinEvent",
      "outputs": [],
      "stateMutability": "nonpayable",
      "type": "function"
    },
    {
      "inputs": [],
      "name": "login",
      "outputs": [],
      "stateMutability": "nonpayable",
      "type": "function"
    }
  ],
  "bytecode": "0x608060405234801561001057600080fd5b50610025600061003e60201b610aa11760201c565b610039600161003e60201b610aa11760201c565b610054565b6001816000016000828254019250508190555050565b6118fc806100636000396000f3fe608060405234801561001057600080fd5b50600436106100625760003560e01c8063404aa8f9146100675780634f3900b0146100715780635c8d86d41461008d5780637931c7ad146100a95780639eab5253146100c5578063b34e97e8146100cf575b600080fd5b61006f6100d9565b005b61008b60048036038101906100869190610dc0565b610113565b005b6100a760048036038101906100a29190610e57565b610301565b005b6100c360048036038101906100be9190610dc0565b61079f565b005b6100cd6109e3565b005b6100d7610a1d565b005b7f4a5dde055c42e8db79ff0034e99289e2dde95cf5494148eac9730e35db5160ca600260405161010991906113f2565b60405180910390a1565b6000600460003373ffffffffffffffffffffffffffffffffffffffff1673ffffffffffffffffffffffffffffffffffffffff1681526020019081526020016000205411610195576040517f08c379a000000000000000000000000000000000000000000000000000000000815260040161018c90611456565b60405180910390fd5b60006101a16000610ab7565b9050606060006040518060e001604052808481526020014281526020018781526020018681526020018581526020013373ffffffffffffffffffffffffffffffffffffffff16815260200183815250905060028190806001815401808255809150506001900390600052602060002090600702016000909190919091506000820151816000015560208201518160010155604082015181600201908051906020019061024e929190610ac5565b50606082015181600301908051906020019061026b929190610ac5565b506080820151816004019080519060200190610288929190610ac5565b5060a08201518160050160006101000a81548173ffffffffffffffffffffffffffffffffffffffff021916908373ffffffffffffffffffffffffffffffffffffffff16021790555060c08201518160060190805190602001906102ec929190610b4b565b5050506102f96000610aa1565b505050505050565b600060018261ffff16610314919061169c565b9050600280549050811061035d576040517f08c379a000000000000000000000000000000000000000000000000000000000815260040161035490611496565b60405180910390fd5b60005b6002828154811061039a577f4e487b7100000000000000000000000000000000000000000000000000000000600052603260045260246000fd5b9060005260206000209060070201600601805490508110156104e5573373ffffffffffffffffffffffffffffffffffffffff1660028381548110610407577f4e487b7100000000000000000000000000000000000000000000000000000000600052603260045260246000fd5b90600052602060002090600702016006018281548110610450577f4e487b7100000000000000000000000000000000000000000000000000000000600052603260045260246000fd5b9060005260206000200160009054906101000a900473ffffffffffffffffffffffffffffffffffffffff1673ffffffffffffffffffffffffffffffffffffffff1614156104d2576040517f08c379a00000000000000000000000000000000000000000000000000000000081526004016104c990611436565b60405180910390fd5b80806104dd906117b9565b915050610360565b506000600460003373ffffffffffffffffffffffffffffffffffffffff1673ffffffffffffffffffffffffffffffffffffffff1681526020019081526020016000205411610568576040517f08c379a000000000000000000000000000000000000000000000000000000000815260040161055f90611456565b60405180910390fd5b600281815481106105a2577f4e487b7100000000000000000000000000000000000000000000000000000000600052603260045260246000fd5b9060005260206000209060070201600601339080600181540180825580915050600190039060005260206000200160009091909190916101000a81548173ffffffffffffffffffffffffffffffffffffffff021916908373ffffffffffffffffffffffffffffffffffffffff16021790555060006001600460003373ffffffffffffffffffffffffffffffffffffffff1673ffffffffffffffffffffffffffffffffffffffff16815260200190815260200160002054610662919061169c565b90506002600382815481106106a0577f4e487b7100000000000000000000000000000000000000000000000000000000600052603260045260246000fd5b906000526020600020906008020160010160008282546106c09190611646565b9250508190555060038181548110610701577f4e487b7100000000000000000000000000000000000000000000000000000000600052603260045260246000fd5b90600052602060002090600802016005016002838154811061074c577f4e487b7100000000000000000000000000000000000000000000000000000000600052603260045260246000fd5b90600052602060002090600702016002019080600181540180825580915050600190039060005260206000200160009091909190915090805461078e90611753565b610799929190610bd5565b50505050565b6000600460003373ffffffffffffffffffffffffffffffffffffffff1673ffffffffffffffffffffffffffffffffffffffff1681526020019081526020016000205414610821576040517f08c379a000000000000000000000000000000000000000000000000000000000815260040161081890611476565b60405180910390fd5b600061082d6001610ab7565b905060606000604051806101000160405280848152602001600181526020014281526020018781526020018681526020018381526020018581526020013373ffffffffffffffffffffffffffffffffffffffff168152509050600381908060018154018082558091505060019003906000526020600020906008020160009091909190915060008201518160000155602082015181600101556040820151816002015560608201518160030190805190602001906108ec929190610ac5565b506080820151816004019080519060200190610909929190610ac5565b5060a0820151816005019080519060200190610926929190610c62565b5060c0820151816006019080519060200190610943929190610ac5565b5060e08201518160070160006101000a81548173ffffffffffffffffffffffffffffffffffffffff021916908373ffffffffffffffffffffffffffffffffffffffff160217905550505082600460003373ffffffffffffffffffffffffffffffffffffffff1673ffffffffffffffffffffffffffffffffffffffff168152602001908152602001600020819055506109db6001610aa1565b505050505050565b7fac6cd24d41ca292861d4b1a98f31b3c96bb953ac470ccd1ccaf6e49c1ffaa93d6003604051610a139190611414565b60405180910390a1565b6000600460003373ffffffffffffffffffffffffffffffffffffffff1673ffffffffffffffffffffffffffffffffffffffff1681526020019081526020016000205411610a9f576040517f08c379a0000000000000000000000000000000000000000000000000000000008152600401610a9690611456565b60405180910390fd5b565b6001816000016000828254019250508190555050565b600081600001549050919050565b828054610ad190611753565b90600052602060002090601f016020900481019282610af35760008555610b3a565b82601f10610b0c57805160ff1916838001178555610b3a565b82800160010185558215610b3a579182015b82811115610b39578251825591602001919060010190610b1e565b5b509050610b479190610cc2565b5090565b828054828255906000526020600020908101928215610bc4579160200282015b82811115610bc35782518260006101000a81548173ffffffffffffffffffffffffffffffffffffffff021916908373ffffffffffffffffffffffffffffffffffffffff16021790555091602001919060010190610b6b565b5b509050610bd19190610cc2565b5090565b828054610be190611753565b90600052602060002090601f016020900481019282610c035760008555610c51565b82601f10610c145780548555610c51565b82800160010185558215610c5157600052602060002091601f016020900482015b82811115610c50578254825591600101919060010190610c35565b5b509050610c5e9190610cc2565b5090565b828054828255906000526020600020908101928215610cb1579160200282015b82811115610cb0578251829080519060200190610ca0929190610ac5565b5091602001919060010190610c82565b5b509050610cbe9190610cdf565b5090565b5b80821115610cdb576000816000905550600101610cc3565b5090565b5b80821115610cff5760008181610cf69190610d03565b50600101610ce0565b5090565b508054610d0f90611753565b6000825580601f10610d215750610d40565b601f016020900490600052602060002090810190610d3f9190610cc2565b5b50565b6000610d56610d51846114e7565b6114b6565b905082815260208101848484011115610d6e57600080fd5b610d79848285611744565b509392505050565b600082601f830112610d9257600080fd5b8135610da2848260208601610d43565b91505092915050565b600081359050610dba816118af565b92915050565b600080600060608486031215610dd557600080fd5b600084013567ffffffffffffffff811115610def57600080fd5b610dfb86828701610d81565b935050602084013567ffffffffffffffff811115610e1857600080fd5b610e2486828701610d81565b925050604084013567ffffffffffffffff811115610e4157600080fd5b610e4d86828701610d81565b9150509250925092565b600060208284031215610e6957600080fd5b6000610e7784828501610dab565b91505092915050565b6000610e8c8383610ed4565b60208301905092915050565b6000610ea483836110a4565b905092915050565b6000610eb88383611224565b905092915050565b6000610ecc83836112f4565b905092915050565b610edd816116fa565b82525050565b6000610eee82611580565b610ef881856115e0565b9350610f0383611517565b8060005b83811015610f3b57610f188261188f565b610f228882610e80565b9750610f2d836115ac565b925050600181019050610f07565b5085935050505092915050565b6000610f538261158b565b610f5d81856115f1565b935083602082028501610f6f8561152c565b8060005b85811015610faa57848403895281610f8b8582610e98565b9450610f96836115b9565b925060208a01995050600181019050610f73565b50829750879550505050505092915050565b6000610fc782611596565b610fd18185611602565b935083602082028501610fe385611541565b8060005b8581101561101e57848403895281610fff8582610eac565b945061100a836115c6565b925060208a01995050600181019050610fe7565b50829750879550505050505092915050565b600061103b826115a1565b6110458185611613565b93508360208202850161105785611556565b8060005b85811015611092578484038952816110738582610ec0565b945061107e836115d3565b925060208a0199505060018101905061105b565b50829750879550505050505092915050565b600081546110b181611753565b6110bb8186611624565b945060018216600081146110d657600181146110e85761111b565b60ff198316865260208601935061111b565b6110f18561156b565b60005b83811015611113578154818901526001820191506020810190506110f4565b808801955050505b50505092915050565b6000611131601b83611635565b91507f4d656d62657220616c7265616479206a6f696e6564206576656e7400000000006000830152602082019050919050565b6000611171601583611635565b91507f4e6f7420746865206d656d626572206f662044414f00000000000000000000006000830152602082019050919050565b60006111b1601583611635565b91507f4d656d62657220616c72656164792065786973747300000000000000000000006000830152602082019050919050565b60006111f1601483611635565b91507f4576656e7420646f6573206e6f742065786973740000000000000000000000006000830152602082019050919050565b600060e08301600080840154905061123b8161179f565b61124860008701826113e3565b50600184015490506112598161179f565b61126660208701826113e3565b5060028401858303604087015261127d83826110a4565b92505060038401858303606087015261129683826110a4565b9250506004840185830360808701526112af83826110a4565b925050600584015490506112c281611785565b6112cf60a0870182610ed4565b506006840185830360c08701526112e68382610ee3565b925050819250505092915050565b60006101008301600080840154905061130c8161179f565b61131960008701826113e3565b506001840154905061132a8161179f565b61133760208701826113e3565b50600284015490506113488161179f565b61135560408701826113e3565b5060038401858303606087015261136c83826110a4565b92505060048401858303608087015261138583826110a4565b9250506005840185830360a087015261139e8382610f48565b9250506006840185830360c08701526113b783826110a4565b925050600784015490506113ca81611785565b6113d760e0870182610ed4565b50819250505092915050565b6113ec8161173a565b82525050565b6000602082019050818103600083015261140c8184610fbc565b905092915050565b6000602082019050818103600083015261142e8184611030565b905092915050565b6000602082019050818103600083015261144f81611124565b9050919050565b6000602082019050818103600083015261146f81611164565b9050919050565b6000602082019050818103600083015261148f816111a4565b9050919050565b600060208201905081810360008301526114af816111e4565b9050919050565b6000604051905081810181811067ffffffffffffffff821117156114dd576114dc611860565b5b8060405250919050565b600067ffffffffffffffff82111561150257611501611860565b5b601f19601f8301169050602081019050919050565b60008190508160005260206000209050919050565b60008190508160005260206000209050919050565b60008190508160005260206000209050919050565b60008190508160005260206000209050919050565b60008190508160005260206000209050919050565b600081549050919050565b600081549050919050565b600081549050919050565b600081549050919050565b6000600182019050919050565b6000600182019050919050565b6000600782019050919050565b6000600882019050919050565b600082825260208201905092915050565b600082825260208201905092915050565b600082825260208201905092915050565b600082825260208201905092915050565b600082825260208201905092915050565b600082825260208201905092915050565b60006116518261173a565b915061165c8361173a565b9250827fffffffffffffffffffffffffffffffffffffffffffffffffffffffffffffffff0382111561169157611690611802565b5b828201905092915050565b60006116a78261173a565b91506116b28361173a565b9250828210156116c5576116c4611802565b5b828203905092915050565b600073ffffffffffffffffffffffffffffffffffffffff82169050919050565b6000819050919050565b60006117058261171a565b9050919050565b600061ffff82169050919050565b600073ffffffffffffffffffffffffffffffffffffffff82169050919050565b6000819050919050565b82818337600083830152505050565b6000600282049050600182168061176b57607f821691505b6020821081141561177f5761177e611831565b5b50919050565b6000611798611793836118a2565b6116d0565b9050919050565b60006117b26117ad836118a2565b6116f0565b9050919050565b60006117c48261173a565b91507fffffffffffffffffffffffffffffffffffffffffffffffffffffffffffffffff8214156117f7576117f6611802565b5b600182019050919050565b7f4e487b7100000000000000000000000000000000000000000000000000000000600052601160045260246000fd5b7f4e487b7100000000000000000000000000000000000000000000000000000000600052602260045260246000fd5b7f4e487b7100000000000000000000000000000000000000000000000000000000600052604160045260246000fd5b600061189b8254611785565b9050919050565b60008160001c9050919050565b6118b88161170c565b81146118c357600080fd5b5056fea26469706673582212202164e55fdd585c6692c424c4b4ca762496a61c07d78965ecc9b1181baade24be64736f6c63430008000033",
  "linkReferences": {},
  "deployedLinkReferences": {}
}