{
  "_format": "hh-sol-artifact-1",
  "contractName": "DAO",
  "sourceName": "contracts/DAO.sol",
  "abi": [
    {
      "inputs": [],
      "stateMutability": "nonpayable",
      "type": "constructor"
    },
    {
      "anonymous": false,
      "inputs": [
        {
          "components": [
            {
              "internalType": "uint256",
              "name": "eventId",
              "type": "uint256"
            },
            {
              "internalType": "uint256",
              "name": "eventTimeStamp",
              "type": "uint256"
            },
            {
              "internalType": "string",
              "name": "name",
              "type": "string"
            },
            {
              "internalType": "string",
              "name": "description",
              "type": "string"
            },
            {
              "internalType": "string",
              "name": "coverURL",
              "type": "string"
            },
            {
              "internalType": "address",
              "name": "createdBy",
              "type": "address"
            },
            {
              "internalType": "address[]",
              "name": "attendees",
              "type": "address[]"
            }
          ],
          "indexed": false,
          "internalType": "struct DAO.Event[]",
          "name": "events",
          "type": "tuple[]"
        }
      ],
      "name": "EventsList",
      "type": "event"
    },
    {
      "anonymous": false,
      "inputs": [
        {
          "components": [
            {
              "internalType": "uint256",
              "name": "memberId",
              "type": "uint256"
            },
            {
              "internalType": "uint256",
              "name": "activityPoints",
              "type": "uint256"
            },
            {
              "internalType": "uint256",
              "name": "joinTimeStamp",
              "type": "uint256"
            },
            {
              "internalType": "string",
              "name": "discordUsername",
              "type": "string"
            },
            {
              "internalType": "string",
              "name": "role",
              "type": "string"
            },
            {
              "internalType": "string[]",
              "name": "pastActivities",
              "type": "string[]"
            },
            {
              "internalType": "string",
              "name": "profileURL",
              "type": "string"
            },
            {
              "internalType": "address",
              "name": "memberAddress",
              "type": "address"
            }
          ],
          "indexed": false,
          "internalType": "struct DAO.Member[]",
          "name": "members",
          "type": "tuple[]"
        }
      ],
      "name": "MembersList",
      "type": "event"
    },
    {
      "inputs": [
        {
          "internalType": "string",
          "name": "_name",
          "type": "string"
        },
        {
          "internalType": "string",
          "name": "_description",
          "type": "string"
        },
        {
          "internalType": "string",
          "name": "_coverURL",
          "type": "string"
        }
      ],
      "name": "addEvent",
      "outputs": [],
      "stateMutability": "nonpayable",
      "type": "function"
    },
    {
      "inputs": [
        {
          "internalType": "string",
          "name": "_discordUsername",
          "type": "string"
        },
        {
          "internalType": "string",
          "name": "_role",
          "type": "string"
        },
        {
          "internalType": "string",
          "name": "_profileURL",
          "type": "string"
        }
      ],
      "name": "addMember",
      "outputs": [],
      "stateMutability": "nonpayable",
      "type": "function"
    },
    {
      "inputs": [],
      "name": "getEvents",
      "outputs": [
        {
          "components": [
            {
              "internalType": "uint256",
              "name": "eventId",
              "type": "uint256"
            },
            {
              "internalType": "uint256",
              "name": "eventTimeStamp",
              "type": "uint256"
            },
            {
              "internalType": "string",
              "name": "name",
              "type": "string"
            },
            {
              "internalType": "string",
              "name": "description",
              "type": "string"
            },
            {
              "internalType": "string",
              "name": "coverURL",
              "type": "string"
            },
            {
              "internalType": "address",
              "name": "createdBy",
              "type": "address"
            },
            {
              "internalType": "address[]",
              "name": "attendees",
              "type": "address[]"
            }
          ],
          "internalType": "struct DAO.Event[]",
          "name": "",
          "type": "tuple[]"
        }
      ],
      "stateMutability": "view",
      "type": "function"
    },
    {
      "inputs": [],
      "name": "getMembers",
      "outputs": [
        {
          "components": [
            {
              "internalType": "uint256",
              "name": "memberId",
              "type": "uint256"
            },
            {
              "internalType": "uint256",
              "name": "activityPoints",
              "type": "uint256"
            },
            {
              "internalType": "uint256",
              "name": "joinTimeStamp",
              "type": "uint256"
            },
            {
              "internalType": "string",
              "name": "discordUsername",
              "type": "string"
            },
            {
              "internalType": "string",
              "name": "role",
              "type": "string"
            },
            {
              "internalType": "string[]",
              "name": "pastActivities",
              "type": "string[]"
            },
            {
              "internalType": "string",
              "name": "profileURL",
              "type": "string"
            },
            {
              "internalType": "address",
              "name": "memberAddress",
              "type": "address"
            }
          ],
          "internalType": "struct DAO.Member[]",
          "name": "",
          "type": "tuple[]"
        }
      ],
      "stateMutability": "view",
      "type": "function"
    },
    {
      "inputs": [
        {
          "internalType": "uint16",
          "name": "_eventID",
          "type": "uint16"
        }
      ],
      "name": "joinEvent",
      "outputs": [],
      "stateMutability": "nonpayable",
      "type": "function"
    },
    {
      "inputs": [],
      "name": "login",
      "outputs": [],
      "stateMutability": "view",
      "type": "function"
    }
  ],
  "bytecode": "0x60806040523480156200001157600080fd5b506200002960006200004660201b620010c51760201c565b6200004060016200004660201b620010c51760201c565b6200005c565b6001816000016000828254019250508190555050565b611e34806200006c6000396000f3fe608060405234801561001057600080fd5b50600436106100625760003560e01c8063404aa8f9146100675780634f3900b0146100855780635c8d86d4146100a15780637931c7ad146100bd5780639eab5253146100d9578063b34e97e8146100f7575b600080fd5b61006f610101565b60405161007c9190611982565b60405180910390f35b61009f600480360381019061009a91906113e4565b61040e565b005b6100bb60048036038101906100b6919061147b565b6105fc565b005b6100d760048036038101906100d291906113e4565b610a9a565b005b6100e1610cde565b6040516100ee91906119a4565b60405180910390f35b6100ff611041565b005b60606002805480602002602001604051908101604052809291908181526020016000905b8282101561040557838290600052602060002090600702016040518060e0016040529081600082015481526020016001820154815260200160028201805461016c90611cce565b80601f016020809104026020016040519081016040528092919081815260200182805461019890611cce565b80156101e55780601f106101ba576101008083540402835291602001916101e5565b820191906000526020600020905b8154815290600101906020018083116101c857829003601f168201915b505050505081526020016003820180546101fe90611cce565b80601f016020809104026020016040519081016040528092919081815260200182805461022a90611cce565b80156102775780601f1061024c57610100808354040283529160200191610277565b820191906000526020600020905b81548152906001019060200180831161025a57829003601f168201915b5050505050815260200160048201805461029090611cce565b80601f01602080910402602001604051908101604052809291908181526020018280546102bc90611cce565b80156103095780601f106102de57610100808354040283529160200191610309565b820191906000526020600020905b8154815290600101906020018083116102ec57829003601f168201915b505050505081526020016005820160009054906101000a900473ffffffffffffffffffffffffffffffffffffffff1673ffffffffffffffffffffffffffffffffffffffff1673ffffffffffffffffffffffffffffffffffffffff168152602001600682018054806020026020016040519081016040528092919081815260200182805480156103ed57602002820191906000526020600020905b8160009054906101000a900473ffffffffffffffffffffffffffffffffffffffff1673ffffffffffffffffffffffffffffffffffffffff16815260200190600101908083116103a3575b50505050508152505081526020019060010190610125565b50505050905090565b6000600460003373ffffffffffffffffffffffffffffffffffffffff1673ffffffffffffffffffffffffffffffffffffffff1681526020019081526020016000205411610490576040517f08c379a0000000000000000000000000000000000000000000000000000000008152600401610487906119e6565b60405180910390fd5b600061049c60006110db565b9050606060006040518060e001604052808481526020014281526020018781526020018681526020018581526020013373ffffffffffffffffffffffffffffffffffffffff1681526020018381525090506002819080600181540180825580915050600190039060005260206000209060070201600090919091909150600082015181600001556020820151816001015560408201518160020190805190602001906105499291906110e9565b5060608201518160030190805190602001906105669291906110e9565b5060808201518160040190805190602001906105839291906110e9565b5060a08201518160050160006101000a81548173ffffffffffffffffffffffffffffffffffffffff021916908373ffffffffffffffffffffffffffffffffffffffff16021790555060c08201518160060190805190602001906105e792919061116f565b5050506105f460006110c5565b505050505050565b600060018261ffff1661060f9190611c0e565b90506002805490508110610658576040517f08c379a000000000000000000000000000000000000000000000000000000000815260040161064f90611a26565b60405180910390fd5b60005b60028281548110610695577f4e487b7100000000000000000000000000000000000000000000000000000000600052603260045260246000fd5b9060005260206000209060070201600601805490508110156107e0573373ffffffffffffffffffffffffffffffffffffffff1660028381548110610702577f4e487b7100000000000000000000000000000000000000000000000000000000600052603260045260246000fd5b9060005260206000209060070201600601828154811061074b577f4e487b7100000000000000000000000000000000000000000000000000000000600052603260045260246000fd5b9060005260206000200160009054906101000a900473ffffffffffffffffffffffffffffffffffffffff1673ffffffffffffffffffffffffffffffffffffffff1614156107cd576040517f08c379a00000000000000000000000000000000000000000000000000000000081526004016107c4906119c6565b60405180910390fd5b80806107d890611d00565b91505061065b565b506000600460003373ffffffffffffffffffffffffffffffffffffffff1673ffffffffffffffffffffffffffffffffffffffff1681526020019081526020016000205411610863576040517f08c379a000000000000000000000000000000000000000000000000000000000815260040161085a906119e6565b60405180910390fd5b6002818154811061089d577f4e487b7100000000000000000000000000000000000000000000000000000000600052603260045260246000fd5b9060005260206000209060070201600601339080600181540180825580915050600190039060005260206000200160009091909190916101000a81548173ffffffffffffffffffffffffffffffffffffffff021916908373ffffffffffffffffffffffffffffffffffffffff16021790555060006001600460003373ffffffffffffffffffffffffffffffffffffffff1673ffffffffffffffffffffffffffffffffffffffff1681526020019081526020016000205461095d9190611c0e565b905060026003828154811061099b577f4e487b7100000000000000000000000000000000000000000000000000000000600052603260045260246000fd5b906000526020600020906008020160010160008282546109bb9190611bb8565b92505081905550600381815481106109fc577f4e487b7100000000000000000000000000000000000000000000000000000000600052603260045260246000fd5b906000526020600020906008020160050160028381548110610a47577f4e487b7100000000000000000000000000000000000000000000000000000000600052603260045260246000fd5b906000526020600020906007020160020190806001815401808255809150506001900390600052602060002001600090919091909150908054610a8990611cce565b610a949291906111f9565b50505050565b6000600460003373ffffffffffffffffffffffffffffffffffffffff1673ffffffffffffffffffffffffffffffffffffffff1681526020019081526020016000205414610b1c576040517f08c379a0000000000000000000000000000000000000000000000000000000008152600401610b1390611a06565b60405180910390fd5b6000610b2860016110db565b905060606000604051806101000160405280848152602001600181526020014281526020018781526020018681526020018381526020018581526020013373ffffffffffffffffffffffffffffffffffffffff16815250905060038190806001815401808255809150506001900390600052602060002090600802016000909190919091506000820151816000015560208201518160010155604082015181600201556060820151816003019080519060200190610be79291906110e9565b506080820151816004019080519060200190610c049291906110e9565b5060a0820151816005019080519060200190610c21929190611286565b5060c0820151816006019080519060200190610c3e9291906110e9565b5060e08201518160070160006101000a81548173ffffffffffffffffffffffffffffffffffffffff021916908373ffffffffffffffffffffffffffffffffffffffff160217905550505082600460003373ffffffffffffffffffffffffffffffffffffffff1673ffffffffffffffffffffffffffffffffffffffff16815260200190815260200160002081905550610cd660016110c5565b505050505050565b60606003805480602002602001604051908101604052809291908181526020016000905b82821015611038578382906000526020600020906008020160405180610100016040529081600082015481526020016001820154815260200160028201548152602001600382018054610d5490611cce565b80601f0160208091040260200160405190810160405280929190818152602001828054610d8090611cce565b8015610dcd5780601f10610da257610100808354040283529160200191610dcd565b820191906000526020600020905b815481529060010190602001808311610db057829003601f168201915b50505050508152602001600482018054610de690611cce565b80601f0160208091040260200160405190810160405280929190818152602001828054610e1290611cce565b8015610e5f5780601f10610e3457610100808354040283529160200191610e5f565b820191906000526020600020905b815481529060010190602001808311610e4257829003601f168201915b5050505050815260200160058201805480602002602001604051908101604052809291908181526020016000905b82821015610f39578382906000526020600020018054610eac90611cce565b80601f0160208091040260200160405190810160405280929190818152602001828054610ed890611cce565b8015610f255780601f10610efa57610100808354040283529160200191610f25565b820191906000526020600020905b815481529060010190602001808311610f0857829003601f168201915b505050505081526020019060010190610e8d565b505050508152602001600682018054610f5190611cce565b80601f0160208091040260200160405190810160405280929190818152602001828054610f7d90611cce565b8015610fca5780601f10610f9f57610100808354040283529160200191610fca565b820191906000526020600020905b815481529060010190602001808311610fad57829003601f168201915b505050505081526020016007820160009054906101000a900473ffffffffffffffffffffffffffffffffffffffff1673ffffffffffffffffffffffffffffffffffffffff1673ffffffffffffffffffffffffffffffffffffffff168152505081526020019060010190610d02565b50505050905090565b6000600460003373ffffffffffffffffffffffffffffffffffffffff1673ffffffffffffffffffffffffffffffffffffffff16815260200190815260200160002054116110c3576040517f08c379a00000000000000000000000000000000000000000000000000000000081526004016110ba906119e6565b60405180910390fd5b565b6001816000016000828254019250508190555050565b600081600001549050919050565b8280546110f590611cce565b90600052602060002090601f016020900481019282611117576000855561115e565b82601f1061113057805160ff191683800117855561115e565b8280016001018555821561115e579182015b8281111561115d578251825591602001919060010190611142565b5b50905061116b91906112e6565b5090565b8280548282559060005260206000209081019282156111e8579160200282015b828111156111e75782518260006101000a81548173ffffffffffffffffffffffffffffffffffffffff021916908373ffffffffffffffffffffffffffffffffffffffff1602179055509160200191906001019061118f565b5b5090506111f591906112e6565b5090565b82805461120590611cce565b90600052602060002090601f0160209004810192826112275760008555611275565b82601f106112385780548555611275565b8280016001018555821561127557600052602060002091601f016020900482015b82811115611274578254825591600101919060010190611259565b5b50905061128291906112e6565b5090565b8280548282559060005260206000209081019282156112d5579160200282015b828111156112d45782518290805190602001906112c49291906110e9565b50916020019190600101906112a6565b5b5090506112e29190611303565b5090565b5b808211156112ff5760008160009055506001016112e7565b5090565b5b80821115611323576000818161131a9190611327565b50600101611304565b5090565b50805461133390611cce565b6000825580601f106113455750611364565b601f01602090049060005260206000209081019061136391906112e6565b5b50565b600061137a61137584611a77565b611a46565b90508281526020810184848401111561139257600080fd5b61139d848285611c8c565b509392505050565b600082601f8301126113b657600080fd5b81356113c6848260208601611367565b91505092915050565b6000813590506113de81611de7565b92915050565b6000806000606084860312156113f957600080fd5b600084013567ffffffffffffffff81111561141357600080fd5b61141f868287016113a5565b935050602084013567ffffffffffffffff81111561143c57600080fd5b611448868287016113a5565b925050604084013567ffffffffffffffff81111561146557600080fd5b611471868287016113a5565b9150509250925092565b60006020828403121561148d57600080fd5b600061149b848285016113cf565b91505092915050565b60006114b083836114f8565b60208301905092915050565b60006114c883836116c4565b905092915050565b60006114dc83836117fd565b905092915050565b60006114f083836118ae565b905092915050565b61150181611c42565b82525050565b600061151282611ae7565b61151c8185611b52565b935061152783611aa7565b8060005b8381101561155857815161153f88826114a4565b975061154a83611b1e565b92505060018101905061152b565b5085935050505092915050565b600061157082611af2565b61157a8185611b63565b93508360208202850161158c85611ab7565b8060005b858110156115c857848403895281516115a985826114bc565b94506115b483611b2b565b925060208a01995050600181019050611590565b50829750879550505050505092915050565b60006115e582611afd565b6115ef8185611b74565b93508360208202850161160185611ac7565b8060005b8581101561163d578484038952815161161e85826114d0565b945061162983611b38565b925060208a01995050600181019050611605565b50829750879550505050505092915050565b600061165a82611b08565b6116648185611b85565b93508360208202850161167685611ad7565b8060005b858110156116b2578484038952815161169385826114e4565b945061169e83611b45565b925060208a0199505060018101905061167a565b50829750879550505050505092915050565b60006116cf82611b13565b6116d98185611b96565b93506116e9818560208601611c9b565b6116f281611dd6565b840191505092915050565b600061170a601b83611ba7565b91507f4d656d62657220616c7265616479206a6f696e6564206576656e7400000000006000830152602082019050919050565b600061174a601583611ba7565b91507f4e6f7420746865206d656d626572206f662044414f00000000000000000000006000830152602082019050919050565b600061178a601583611ba7565b91507f4d656d62657220616c72656164792065786973747300000000000000000000006000830152602082019050919050565b60006117ca601483611ba7565b91507f4576656e7420646f6573206e6f742065786973740000000000000000000000006000830152602082019050919050565b600060e0830160008301516118156000860182611973565b5060208301516118286020860182611973565b506040830151848203604086015261184082826116c4565b9150506060830151848203606086015261185a82826116c4565b9150506080830151848203608086015261187482826116c4565b91505060a083015161188960a08601826114f8565b5060c083015184820360c08601526118a18282611507565b9150508091505092915050565b6000610100830160008301516118c76000860182611973565b5060208301516118da6020860182611973565b5060408301516118ed6040860182611973565b506060830151848203606086015261190582826116c4565b9150506080830151848203608086015261191f82826116c4565b91505060a083015184820360a08601526119398282611565565b91505060c083015184820360c086015261195382826116c4565b91505060e083015161196860e08601826114f8565b508091505092915050565b61197c81611c82565b82525050565b6000602082019050818103600083015261199c81846115da565b905092915050565b600060208201905081810360008301526119be818461164f565b905092915050565b600060208201905081810360008301526119df816116fd565b9050919050565b600060208201905081810360008301526119ff8161173d565b9050919050565b60006020820190508181036000830152611a1f8161177d565b9050919050565b60006020820190508181036000830152611a3f816117bd565b9050919050565b6000604051905081810181811067ffffffffffffffff82111715611a6d57611a6c611da7565b5b8060405250919050565b600067ffffffffffffffff821115611a9257611a91611da7565b5b601f19601f8301169050602081019050919050565b6000819050602082019050919050565b6000819050602082019050919050565b6000819050602082019050919050565b6000819050602082019050919050565b600081519050919050565b600081519050919050565b600081519050919050565b600081519050919050565b600081519050919050565b6000602082019050919050565b6000602082019050919050565b6000602082019050919050565b6000602082019050919050565b600082825260208201905092915050565b600082825260208201905092915050565b600082825260208201905092915050565b600082825260208201905092915050565b600082825260208201905092915050565b600082825260208201905092915050565b6000611bc382611c82565b9150611bce83611c82565b9250827fffffffffffffffffffffffffffffffffffffffffffffffffffffffffffffffff03821115611c0357611c02611d49565b5b828201905092915050565b6000611c1982611c82565b9150611c2483611c82565b925082821015611c3757611c36611d49565b5b828203905092915050565b6000611c4d82611c62565b9050919050565b600061ffff82169050919050565b600073ffffffffffffffffffffffffffffffffffffffff82169050919050565b6000819050919050565b82818337600083830152505050565b60005b83811015611cb9578082015181840152602081019050611c9e565b83811115611cc8576000848401525b50505050565b60006002820490506001821680611ce657607f821691505b60208210811415611cfa57611cf9611d78565b5b50919050565b6000611d0b82611c82565b91507fffffffffffffffffffffffffffffffffffffffffffffffffffffffffffffffff821415611d3e57611d3d611d49565b5b600182019050919050565b7f4e487b7100000000000000000000000000000000000000000000000000000000600052601160045260246000fd5b7f4e487b7100000000000000000000000000000000000000000000000000000000600052602260045260246000fd5b7f4e487b7100000000000000000000000000000000000000000000000000000000600052604160045260246000fd5b6000601f19601f8301169050919050565b611df081611c54565b8114611dfb57600080fd5b5056fea2646970667358221220b842270e18bac585627361bb34220e0fd487577ca575c2da0093014409bcc8cb64736f6c63430008000033",
  "linkReferences": {},
  "deployedLinkReferences": {}
}